S02200002E2F44656275672F7379737469636B5F6972715F68616E646C65722E7331396D
S315200000000248854600F07EF8FEE7C04600C0012083
S3152000001080B500AF084B00221A60084B00221A60F8
S31520000020074BA7221A60074B00221A60034B0722B0
S315200000301A60C046BD4680BD4401002010E000E0A5
S3152000004014E000E018E000E080B500AF0A4B002283
S315200000501A600A4B1B685A1E084B1A60074B1B680E
S31520000060002B02DDFFF7D4FF02E0054B01221A60C8
S31520000070C046BD4680BDC04610E000E048010020D5
S315200000804401002080B582B000AF78607B68002BE9
S3152000009008D07A68054B1A60054B00221A60FFF7D4
S315200000A0B7FF00E0C046BD4602B080BD4801002033
S315200000B04401002080B500AF0A4B18221A600A4B73
S315200000C01A68094B8021C9010A431A60074B084A5E
S315200000D01A60084B084A1A60084B094A1A60C0463B
S315200000E0BD4680BD303802404438024008ED00E06D
S315200000F000C00120000C0240555555553CC001203A
S315200001004900002080B500AFFFF7D4FF0A4B00223C
S315200001101A700A4B1800FFF7B5FF074BFF221A701B
S31520000120074B1B68002B00D1FAE7C046024B002282
S315200001301A70C046BD4680BD140C0240A086010040
S3112000014044010020000000000000000028
S70520000000DA
