S02400002E2F44656275672F666C6970666C6F705F6972715F766563746F7265642E7331399B
S315200000000248854600F00EF9FEE7C04600C00120F2
S3152000001080B500AF384B18221A60384B1A68374B18
S315200000208021C9010A431A60354B364A1A60364B7D
S31520000030AA22D2011A60354B1A68344B34490A4039
S315200000401A60324B1A68314B32490A431A60324BD6
S315200000501A68314B40210A431A602F4B1A682E4BDF
S3152000006080210A431A602C4B1A682B4B80214900A9
S315200000700A431A60294B1A68284B120B12031A607E
S31520000080264B1A68254B26490A431A60254B1A68BF
S31520000090244B01210A431A60224B1A68214B022164
S315200000A00A431A601F4B1A681E4B04210A431A6022
S315200000B01D4B1B681C4B00221A601C4B1A681B4BDD
S315200000C001210A431A60194B1A68184B02210A4368
S315200000D01A60164B1A68154B04210A431A60144BF2
S315200000E0144A1A60144B154A1A60154B154A1A60A1
S315200000F0C046BD4680BDC046303802404438024026
S3152000010008ED00E000C0012000100240000C024073
S31520000110555500005555555500E100E00838014079
S3152000012044040000003C01400C3C0140083C0140D6
S3152000013058C00120490100205CC001209501002003
S3152000014060C00120D901002080B500AF0E4B1A688F
S315200001500D4B01210A431A600C4B1B685A1C0B4B92
S315200001601A600B4B1B78DBB2094A10210B43DBB21A
S315200001701370074B1B78DBB2054A10218B43DBB289
S315200001801370C046BD4680BD143C0140400200208D
S315200001901410024080B500AF0C4B1A680B4B02219D
S315200001A00A431A600A4B1B78DBB2094A20210B430B
S315200001B0DBB21370074B00221A60054B1B78044BE9
S315200001C000221A70C046BD4680BDC046143C014080
S315200001D0141002404002002080B500AF0E4B1A6872
S315200001E00D4B04210A431A600C4B1B78DBB20B4AD9
S315200001F040210B43DBB21370094B1B78DBB2084A54
S31520000200DB43DBB21370054B1B78044B00221A70BC
S31520000210C046BD4680BDC046143C01401410024075
S31520000220150C024080B500AFFFF7F2FE024B1A68AC
S31520000230024BD2B21A70F9E740020020140C024099
S309200002400000000094
S70520000000DA
