S01300002E2F44656275672F47414D452E73313954
S315200000000248854601F000F8FEE7C04600C0012000
S3152000001080B500AF0C4B00221A600C4B29221A60C7
S315200000200B4B00221A60084B05221A60C046064B6D
S315200000301A6880235B021340F9D0034B00221A6012
S31520000040C046BD4680BDC04610E000E014E000E09A
S3152000005018E000E080B584B000AF78600023FB6034
S315200000600AE0FFF7D5FFFFF7D3FFFFF7D1FFFFF732
S31520000070CFFFFB680133FB60FB687A689A42F0D8B1
S31520000080C046C046BD4604B080BD80B582B000AF34
S31520000090786007E0FA239B001800FFF7DBFF7B68F8
S315200000A0013B7B607B68002BF4D1C046C046BD4631
S315200000B002B080BD80B500AFFFF7AAFFFFF7A8FF0B
S315200000C0C046BD4680BD80B584B000AF0200FB1D92
S315200000D01A700C4A0F217B1812781A70FA1D7B1899
S315200000E012781B781343DAB208007B1804210A43DE
S315200000F01A70044A3B181B781370C046BD4604B0DC
S3152000010080BDC0461410024080B584B000AF020006
S31520000110FB1D1A700D4A0F217B1812781A70FB1DD1
S315200001201B785BB2DB435BB2042213435BB27A18C3
S31520000130127852B213405AB27B181A70034A7B18AF
S315200001401B781370C046BD4604B080BD1410024013
S3152000015080B582B000AF0200FB1D1A704020FFF769
S31520000160B2FF064AFB1D1B7813704020FFF7CCFF19
S31520000170FFF74EFFC046BD4602B080BD15100240B7
S3152000018080B582B000AF4020FFF79DFFFFF740FF0C
S31520000190FFF73EFF064AFB1D12781A704020FFF734
S315200001A0B3FFFB1D1B781800BD4602B080BDC046BC
S315200001B01110024090B583B000AF0B4B0B4A1A606A
S315200001C00220FFF780FF0120FFF79EFFFC1DFFF7AF
S315200001D0D7FF03002370044B054A1A60FB1D1B78CA
S315200001E01800BD4603B090BD0010024055550000D2
S315200001F05555555590B583B000AF0B4B0B4A1A6039
S315200002000120FFF760FF0220FFF75DFFFC1DFFF7CF
S31520000210B7FF03002370044B054A1A60FB1D1B78A9
S315200002201800BD4603B090BD001002405555000091
S315200002305555555580B582B000AF0200FB1D1A708A
S315200002400120FFF761FF0220FFF75EFFFB1D1B78F1
S315200002501800FFF77DFFC046BD4602B080BD80B5C1
S3152000026082B000AF0200FB1D1A700120FFF72BFFA2
S315200002700220FFF749FFFB1D1B781800FFF768FFD8
S31520000280C046BD4602B080BD80B582B000AF020038
S31520000290FB1D1A70C046FFF78DFF03001A0080234E
S315200002A01340802BF7D00820FFF7D4FEFB1D1B78C8
S315200002B01800FFF7BFFFC046BD4602B080BD80B51F
S315200002C082B000AF0200FB1D1A700820FFF7C2FEA5
S315200002D0FB1D1B781800FFF7C2FF2B20FFF7BAFE85
S315200002E0C046C046BD4602B080BD80B584B000AFD2
S315200002F0786039607B68013BFB603B68022B02D14A
S31520000300FB684033FB60FB685BB28022524213439A
S315200003105BB2DBB21800FFF78DFF2720FFF79AFEAE
S31520000320C046BD4604B080BD80B582B000AF012175
S315200003300120FFF7DAFF124B7B6006E07B685A1C30
S315200003407A601B781800FFF7BAFF7B681B78002BB2
S31520000350F4D102210120FFF7C8FF094B7B6006E09C
S315200003607B685A1C7A601B781800FFF7A8FF7B6809
S315200003701B78002BF4D1C046C046BD4602B080BDD6
S31520000380E411002080B584B000AF0200FB1D1A7076
S315200003900F4A0F203B1812781A703B183A18127819
S315200003A004218A431A70FB1D1B785BB204229343F7
S315200003B05AB23B181B785BB213435AB23B181A70D9
S315200003C0034A3B181B781370C046BD4604B080BD57
S315200003D01410024080B584B000AF0200FB1D1A70D5
S315200003E00F4A0F203B1812781A703B183A181278C9
S315200003F004218A431A70FB1D1B785BB2DB435BB278
S315200004003A18127852B213405AB23B181A70044A5C
S315200004103B181B781370C046BD4604B080BDC0464D
S315200004201410024080B582B000AF0200FB1D1A7086
S31520000430FB1D1B78182B1AD01DDC102B10D01ADCB4
S31520000440002B02D0082B04D015E01820FFF7C2FF9E
S3152000045011E00820FFF796FF1020FFF7BBFF0AE008
S315200004601020FFF78FFF0820FFF7B4FF03E01820C6
S31520000470FFF788FFC046C046BD4602B080BD80B5A6
S3152000048082B000AF4020FFF7A5FF144B144A1A6034
S315200004900120FFF79FFF0220FFF774FFFFF70AFEF8
S315200004A04020FFF76FFFFFF705FE0E4B1B78DAB2F1
S315200004B0FB1D7F218A431A704020FFF78BFFFFF731
S315200004C0F9FDFB1D1B78002B00D0E9E7C046034B46
S315200004D0054A1A60C046BD4602B080BD00100240E3
S315200004E055550000111002405555555580B584B01C
S315200004F000AF0200FB1D1A704020FFF76BFF1C4B5C
S315200005001C4A1A600320FFF73DFFFB1D1B781800CD
S31520000510FFF788FFFFF7CEFD4020FFF733FFFFF7F9
S31520000520C9FD154A0F23FB1812781A704020FFF7D1
S3152000053051FF0F4B114A1A60FB1D1B7808221340EE
S3152000054004D00820FFF76EFFFFF799FFFB1D1B78ED
S315200005501022134004D01020FFF764FFFFF78FFF0F
S315200005600F23FB181B781800BD4604B080BDC0467B
S3152000057000100240555500001110024055555555A2
S3152000058080B582B000AF0200FB1D1A70FB1D1B78E0
S315200005901800FFF7ABFFFB1D1B781800FFF7A6FF1F
S315200005A003001800BD4602B080BD80B582B000AF02
S315200005B00200FB1D1A70BB1D0A1C1A70154AFB1D72
S315200005C01B781370BB1D1B781800FFF72BFFFFF756
S315200005D071FD4020FFF7D6FEFFF76CFD4020FFF7A8
S315200005E0F9FEBB1D1B780822134004D00820FFF714
S315200005F019FFFFF744FFBB1D1B781022134004D0C0
S315200006001020FFF70FFFFFF73AFFC046BD4602B0A6
S3152000061080BDC0461510024080B582B000AF0200F2
S31520000620FB1D1A70BB1D0A1C1A704020FFF7D2FE54
S31520000630BB1D1B781800FFF7F5FE0120FFF7A2FE71
S315200006400220FFF7C7FEBB1D1A78FB1D1B78110081
S315200006501800FFF7AAFFC046BD4602B080BD80B590
S3152000066082B000AF0200FB1D1A70BB1D0A1C1A7057
S315200006704020FFF7AFFEBB1D1B781800FFF7D2FE08
S315200006800120FFF7A7FE0220FFF7A4FEBB1D1A7864
S31520000690FB1D1B7811001800FFF787FFC046BD46DB
S315200006A002B080BD80B582B000AFBB1D00221A709B
S315200006B023E0BB1D1B78482252421343DBB218218C
S315200006C01800FFF7CCFF18214020FFF7C8FFFB1DBD
S315200006D000221A7008E018210020FFF79DFFFB1D5D
S315200006E01A78FB1D01321A70FB1D1B783F2BF2D99D
S315200006F0BB1D1A78BB1D01321A70BB1D1B78072B38
S31520000700D7D9C046C046BD4602B080BD80B500AF31
S315200007104020FFF737FE0A20FFF79CFC7820FFF7E2
S3152000072059FE1E20FFF7B1FC2020FFF72BFE642088
S31520000730FFF7ABFC18213E20FFF791FF18213F2041
S31520000740FFF78DFF1821C020FFF789FF18214020D1
S31520000750FFF785FF1821B820FFF781FF0020FFF75C
S3152000076061FEC046BD4680BDF0B589B000AFF860D9
S31520000770B9607A60FB68002B00DCB9E0BB68002B0F
S3152000078000DCB5E0FB68802B00DDB1E0BB68402BC8
S3152000079000DDADE0BB68013B002B00DA0733DB1040
S315200007A0BB61BB68013B544A134004D5013B082278
S315200007B0524213430133072B2CD89A004F4BD318A0
S315200007C01B689F461F23FB1801221A7022E01F2355
S315200007D0FB1802221A701DE01F23FB1804221A7030
S315200007E018E01F23FB1808221A7013E01F23FB189A
S315200007F010221A700EE01F23FB1820221A7009E01F
S315200008001F23FB1840221A7004E01F23FB188022A6
S315200008101A70C0467B68002B05D11F22BB18BA1858
S315200008201278D2431A70FB68402B07DD1E23FB1873
S3152000083010221A70FB68413BFB6006E01E23FB1862
S3152000084008221A70FB68013BFB60FB685BB2402202
S3152000085013435BB2DAB21E257B191B7819001000F0
S31520000860FFF7FDFEBB695BB24822524213435BB2DF
S31520000870DAB27B191B7819001000FFF7F0FE172655
S31520000880BC197B191B781800FFF77AFE030023702A
S31520000890FB685BB2402213435BB2DAB27B191B784A
S315200008A019001000FFF7DBFE7B68002B08D01F2203
S315200008B0BB18B918BA19097812780A431A7008E0D1
S315200008C01F22BB18BA1817217918127809780A40FE
S315200008D01A701E23FB181A781F23FB181B78110089
S315200008E01800FFF799FE18213F20FFF7B8FE00E019
S315200008F0C046BD4609B0F0BD0700008000120020AA
S3152000090080B584B000AFF860B9607A60FB68BA68D9
S315200009105A60FB687A689A60C046BD4604B080BDBE
S3152000092080B584B000AF78600023FB601CE07B6854
S31520000930DA687B681968FB6804335B00CB180433DC
S315200009401B78D0187B681A697B681968FB680433A2
S315200009505B00CB1805331B78D31801221900FFF74B
S3152000096003FFFB680133FB60FB680B2BDFDDC04612
S31520000970C046BD4604B080BD80B584B000AF786067
S315200009800023FB601CE07B68DA687B681968FB68DB
S3152000099004335B00CB1804331B78D0187B681A69A4
S315200009A07B681968FB6804335B00CB1805331B781A
S315200009B0D31800221900FFF7D7FEFB680133FB602E
S315200009C0FB681D2BDFDDC046C046BD4604B080BD9A
S315200009D080B582B000AF78607B681800FFF7CCFF47
S315200009E07B68DA687B685B68D2187B68DA607B682C
S315200009F01A697B689B68D2187B681A617B68180025
S31520000A00FFF7BAFF7B68DB68002B15DC344B1B78BD
S31520000A100133DAB2324B1A70314B1B78032B05D1D6
S31520000A207B6800225A607B6800229A607B6840229D
S31520000A30DA607B6820221A617B68DA687B681B682B
S31520000A405B68D318802B22DD7B685B685A427B6803
S31520000A505A60244B1B780133DAB2224B1A70214B91
S31520000A601B78032B05D17B6800225A607B68002205
S31520000A709A607B681B685B683C22D21A7B68DA60C6
S31520000A807B681B689B681E22D21A7B681A617B686A
S31520000A901B69002B07DC7B689B685A427B689A603F
S31520000AA07B6801221A617B681A697B681B689B68D0
S31520000AB0D318402B0BDD7B689B685A427B689A6073
S31520000AC07B681B689B684022D21A7B681A617B6808
S31520000AD01800FFF725FFC046BD4602B080BDC046C0
S31520000AE0CD100020CC10002080B582B000AF0200CF
S31520000AF0FB1D1A70FB1D1B78042B18D89A000E4B71
S31520000B00D3181B689F460D4B00221A700FE00B4B23
S31520000B1010221A700BE0094B20221A7007E0074BAF
S31520000B2040221A7003E0054B80221A70C046C04648
S31520000B30BD4602B080BDC04620120020150C0240E2
S31520000B4080B582B000AF0A4AFB1D12781A70FB1DD1
S31520000B50FA1D12780F210A401A70FB1D1B78012BF3
S31520000B6001D1012300E000231800BD4602B080BD5C
S31520000B70110C024080B582B000AF0A4AFB1D1278E4
S31520000B801A70FB1DFA1D12780F210A401A70FB1DE0
S31520000B901B78082B01D1042300E000231800BD4652
S31520000BA002B080BD110C0240F0B587B000AF3B1DEE
S31520000BB01C4A13CA13C312681A601723FB18012292
S31520000BC01A7024E01726BB191B781800FFF78CFF34
S31520000BD016257C19FFF7B4FF030023702C003B1960
S31520000BE01B78002B0DD00020FFF77EFFBB191B784A
S31520000BF0013B9A003B191B78013BD3183A1DD35C65
S31520000C000BE017217B181A787B1801321A701723EC
S31520000C10FB181B78042BD5D9FF231800BD4607B037
S31520000C20F0BDC04634120020F0B587B000AF3B1DA2
S31520000C301C4A13CA13C312681A601723FB18012211
S31520000C401A7024E01726BB191B781800FFF74CFFF3
S31520000C5016257C19FFF78EFF030023702C003B1905
S31520000C601B78002B0DD00020FFF73EFFBB191B7809
S31520000C70013B9A003B191B78013BD3183A1DD35CE4
S31520000C800BE017217B181A787B1801321A7017236C
S31520000C90FB181B78042BD5D9FF231800BD4607B0B7
S31520000CA0F0BDC04634120020B0B584B000AF7860E5
S31520000CB00F257C19FFF7B8FF030023707B191B78DB
S31520000CC00A2B02D00C2B08D00EE07B681B6A03226D
S31520000CD0524278680021984706E07B681B6A78684C
S31520000CE0032200219847C046C046BD4604B0B0BD89
S31520000CF0B0B584B000AF78600F257C19FFF754FF9C
S31520000D00030023707B191B78012B02D0072B08D0F8
S31520000D100EE07B681B6A03225242786800219847BE
S31520000D2006E07B681B6A7868032200219847C04644
S31520000D30C046BD4604B0B0BD80B582B000AF786075
S31520000D4039607B681B6A78680022002198473B68D7
S31520000D501B6A3868002200219847C046BD4602B06B
S31520000D6080BD80B582B000AF786039607B68DA6874
S31520000D703B68D9683B681B685B68CB189A4209DDDB
S31520000D807B68DA687B681B685B68D2183B68DB681F
S31520000D909A4214DB7B681A693B681B699A420EDD0E
S31520000DA07B681A693B6819693B681B689B68CB1886
S31520000DB09A4204DA7B685B685A427B685A60C0466E
S31520000DC0BD4602B080BD90B587B000AFFFF7ACFA44
S31520000DD00C243B19204A1168196012791A713B1D9F
S31520000DE01E4A1168196012791A7101210120FFF734
S31520000DF07CFA3B197B6106E07B695A1C7A611B7879
S31520000E001800FFF75CFA7B691B78002BF4D1144B92
S31520000E101B783033DBB21800FFF751FA022101208C
S31520000E20FFF763FA3B1D7B6106E07B695A1C7A61FA
S31520000E301B781800FFF743FA7B691B78002BF4D147
S31520000E40084B1B783033DBB21800FFF738FAC04660
S31520000E50BD4607B090BDC046441200204C1200206B
S31520000E60CC100020CD10002080B500AFC046FFF783
S31520000E70A1F903001A0080231340802BF7D0082005
S31520000E80FFF7E8F83820FFF7D5F92720FFF7E2F833
S31520000E900E20FFF7CFF92720FFF7DCF80620FFF713
S31520000EA0C9F92720FFF7D6F8C046BD4680BD80B5D4
S31520000EB000AF0A4B18221A6083488047084B094A1C
S31520000EC01A60094B094A1A60094B00221A80094BFD
S31520000ED0094A1A60C046BD4680BDC0463038024029
S31520000EE00010024055555555000C024055550055E9
S31520000EF0040C02400C0C0240AA55AA5580B582B0BB
S31520000F0000AF0A4AFB1D12781A70FB1DFA1D1278D3
S31520000F100F210A401A70FB1D1B78022B01D10223D8
S31520000F2000E000231800BD4602B080BD110C02402F
S31520000F30F0B587B000AF3B1D1B4A13CA13C3126816
S31520000F401A601723FB1801221A7024E01726BB19F2
S31520000F501B781800FFF7C8FD16257C19FFF7CEFF72
S31520000F60030023702C003B191B78002B0DD000208A
S31520000F70FFF7BAFDBB191B78013B9A003B191B787A
S31520000F80013BD3183A1DD35C0AE017217B181A7847
S31520000F907B1801321A701723FB181B78042BD5D91E
S31520000FA01800BD4607B0F0BD34120020B0B584B09D
S31520000FB000AF78600F257B1904221A707C19FFF781
S31520000FC0B7FF030023707B191B78002B14D17B6895
S31520000FD01B6A032252427868032198477B68402285
S31520000FE0DA607B6820221A61054B00221A70054BB5
S31520000FF000221A70FFF756FBC046BD4604B0B0BDAE
S31520001000CC100020CD10002080B586B000AF7860CF
S3152000101039602A4B7B612A4B3B612A4BFB60FFF7E9
S3152000102046FFFFF721FFFFF771FBFFF73BFB7B69CD
S315200010301800FFF7BBFF7B69DB697A6910009847C8
S315200010402820FFF722F83B69DB693A6910009847A8
S315200010502820FFF71AF8FB68DB69FA681000984722
S31520001060FA683B6911001800FFF766FEFFF7ABFE32
S315200010703B691800FFF73CFEFB681800FFF714FEDB
S315200010807B69DB680A2B0ADC7B695B68002B06DA46
S315200010903A697B6911001800FFF763FE0DE07B6952
S315200010A0DB68752BC3DD7B695B68002BBFDDFA68C7
S315200010B07B6911001800FFF754FEB8E76011002085
S315200010C084110020A8110020090200080000000059
S315200010D00C000000040000000400000000010002D3
S315200010E001000101010201030200020102020203C2
S315200010F003010302000000000000000000000000C1
S3152000110000000000000000000000000000000000B9
S3152000111000000000000000001E0000000200000089
S315200011200F00000000010002000300040005000675
S31520001130000700080009000A000B000C000D000E35
S315200011400100010101020103010401050106010755
S3152000115001080109010A010B010C010D010E000015
S31520001160D010002003000000FDFFFFFF400000001C
S31520001170200000002109002079090020D109002043
S3152000118001090020181100200000000000000000C6
S31520001190050000001B00000021090020790900201D
S315200011A0D1090020010900201811002000000000AC
S315200011B0000000007B0000001B0000002109002029
S315200011C079090020D109002001090020504C207700
S315200011D0696E73210000000050522077696E7321DA
S315200011E00000000020202020202020202020202059
S315200011F02020202020202020202020202000000029
S31520001200C4070020CE070020D8070020E2070020D0
S31520001210EC070020F6070020000800200A0800201E
S31520001220060B00200E0B0020160B00201E0B0020A4
S31520001230260B00200102030A0405060B0708090CE9
S315200012400E000F0D504C3A200000000050523A205C
S309200012500000000074
S70520000000DA
