S01900002E2F44656275672F6B6579706164506F6E672E73313956
S315200000000248854600F0A4FCFEE7C04600C0012059
S3152000001080B500AF0C4B00221A600C4B29221A60C7
S315200000200B4B00221A60084B05221A60C046064B6D
S315200000301A6880235B021340F9D0034B00221A6012
S31520000040C046BD4680BDC04610E000E014E000E09A
S3152000005018E000E080B584B000AF78600023FB6034
S315200000600AE0FFF7D5FFFFF7D3FFFFF7D1FFFFF732
S31520000070CFFFFB680133FB60FB687A689A42F0D8B1
S31520000080C046C046BD4604B080BD80B582B000AF34
S31520000090786007E0FA239B001800FFF7DBFF7B68F8
S315200000A0013B7B607B68002BF4D1C046C046BD4631
S315200000B002B080BD80B500AFFFF7AAFFFFF7A8FF0B
S315200000C0C046BD4680BD80B584B000AF0200FB1D92
S315200000D01A70104A0F203B1812781A703B183A18DB
S315200000E0127804218A431A70FB1D1B785BB2042206
S315200000F093435AB23B181B785BB213435AB23B1850
S315200001001A70044A3B181B781370C046BD4604B0CB
S3152000011080BDC0461410024080B584B000AF0200F6
S31520000120FB1D1A700F4A0F203B1812781A703B18C5
S315200001303A18127804218A431A70FB1D1B785BB289
S31520000140DB435BB23A18127852B213405AB23B18CC
S315200001501A70044A3B181B781370C046BD4604B07B
S3152000016080BDC0461410024080B582B000AF0200A8
S31520000170FB1D1A70FB1D1B78182B1AD01DDC102BAB
S3152000018010D01ADC002B02D0082B04D015E0182042
S31520000190FFF7C2FF11E00820FFF795FF1020FFF7B9
S315200001A0BBFF0AE01020FFF78EFF0820FFF7B4FF01
S315200001B003E01820FFF787FFC046C046BD4602B0C1
S315200001C080BD80B582B000AF4020FFF7A5FF144B5D
S315200001D0144A1A600120FFF79FFF0220FFF773FFE2
S315200001E0FFF768FF4020FFF76EFFFFF763FF0E4B18
S315200001F01B78DAB2FB1D7F218A431A704020FFF755
S315200002008BFFFFF757FFFB1D1B78002B00D0E9E77C
S31520000210C046034B054A1A60C046BD4602B080BDA3
S3152000022000100240555500001110024055555555F5
S3152000023080B584B000AF0200FB1D1A704020FFF786
S315200002406BFF1C4B1C4A1A600320FFF73CFFFB1D6B
S315200002501B781800FFF788FFFFF72CFF4020FFF7D9
S3152000026032FFFFF727FF154A0F23FB1812781A7063
S315200002704020FFF751FF0F4B114A1A60FB1D1B78D8
S315200002800822134004D00820FFF76EFFFFF799FFDE
S31520000290FB1D1B781022134004D01020FFF764FFAB
S315200002A0FFF78FFF0F23FB181B781800BD4604B0FD
S315200002B080BDC04600100240555500001110024076
S315200002C05555555580B582B000AF0200FB1D1A70FA
S315200002D0FB1D1B781800FFF7ABFFFB1D1B781800D2
S315200002E0FFF7A6FF03001800BD4602B080BD80B50B
S315200002F082B000AF0200FB1D1A70BB1D0A1C1A70CB
S31520000300154AFB1D1B781370BB1D1B781800FFF7C1
S315200003102BFFFFF7CFFE4020FFF7D5FEFFF7CAFEE3
S315200003204020FFF7F9FEBB1D1B780822134004D09E
S315200003300820FFF719FFFFF744FFBB1D1B7810228B
S31520000340134004D01020FFF70FFFFFF73AFFC046F7
S31520000350BD4602B080BDC0461510024080B582B0B1
S3152000036000AF0200FB1D1A70BB1D0A1C1A7040202C
S31520000370FFF7D2FEBB1D1B781800FFF7F5FE012004
S31520000380FFF7A1FE0220FFF7C7FEBB1D1A78FB1D53
S315200003901B7811001800FFF7AAFFC046BD4602B021
S315200003A080BD80B582B000AF0200FB1D1A70BB1D58
S315200003B00A1C1A704020FFF7AFFEBB1D1B781800E1
S315200003C0FFF7D2FE0120FFF7A7FE0220FFF7A4FECB
S315200003D0BB1D1A78FB1D1B7811001800FFF787FF3D
S315200003E0C046BD4602B080BD80B582B000AFBB1D01
S315200003F000221A7023E0BB1D1B7848225242134369
S31520000400DBB218211800FFF7CCFF18214020FFF798
S31520000410C8FFFB1D00221A7008E018210020FFF7F4
S315200004209DFFFB1D1A78FB1D01321A70FB1D1B78E0
S315200004303F2BF2D9BB1D1A78BB1D01321A70BB1D8A
S315200004401B78072BD7D9C046C046BD4602B080BD13
S3152000045080B500AF4020FFF736FE0A20FFF7FAFDF1
S315200004607820FFF759FE1E20FFF70FFE2020FFF70A
S315200004702AFE6420FFF709FE18213E20FFF791FF90
S3152000048018213F20FFF78DFF1821C020FFF789FF95
S3152000049018214020FFF785FF1821B820FFF781FF9C
S315200004A00020FFF761FEC046BD4680BDF0B589B08D
S315200004B000AFF860B9607A60FB68002B00DCB9E019
S315200004C0BB68002B00DCB5E0FB68802B00DDB1E0CB
S315200004D0BB68402B00DDADE0BB68013B002B00DA9A
S315200004E00733DB10BB61BB68013B544A134004D57C
S315200004F0013B0822524213430133072B2CD89A0082
S315200005004F4BD3181B689F461F23FB1801221A70D6
S3152000051022E01F23FB1802221A701DE01F23FB185E
S3152000052004221A7018E01F23FB1808221A7013E001
S315200005301F23FB1810221A700EE01F23FB182022FF
S315200005401A7009E01F23FB1840221A7004E01F23AB
S31520000550FB1880221A70C0467B68002B05D11F220B
S31520000560BB18BA181278D2431A70FB68402B07DDE5
S315200005701E23FB1810221A70FB68413BFB6006E025
S315200005801E23FB1808221A70FB68013BFB60FB68E0
S315200005905BB2402213435BB2DAB21E257B191B786D
S315200005A019001000FFF7FDFEBB695BB248225242DC
S315200005B013435BB2DAB27B191B7819001000FFF7E0
S315200005C0F0FE1726BC197B191B781800FFF77AFE58
S315200005D003002370FB685BB2402213435BB2DAB29E
S315200005E07B191B7819001000FFF7DBFE7B68002BB8
S315200005F008D01F22BB18B918BA19097812780A43ED
S315200006001A7008E01F22BB18BA1817217918127819
S3152000061009780A401A701E23FB181A781F23FB1824
S315200006201B7811001800FFF799FE18213F20FFF7CD
S31520000630B8FE00E0C046BD4609B0F0BD0700008008
S31520000640400A002080B584B000AFF860B9607A60B7
S31520000650FB68BA685A60FB687A689A60C046BD46ED
S3152000066004B080BD80B584B000AF78600023FB6005
S315200006701CE07B68DA687B681968FB6804335B00DA
S31520000680CB1804331B78D0187B681A697B681968E5
S31520000690FB6804335B00CB1805331B78D318012283
S315200006A01900FFF703FFFB680133FB60FB68132B80
S315200006B0DFDDC046C046BD4604B080BD80B584B0EF
S315200006C000AF78600023FB601CE07B68DA687B68FB
S315200006D01968FB6804335B00CB1804331B78D018E9
S315200006E07B681A697B681968FB6804335B00CB1842
S315200006F005331B78D31800221900FFF7D7FEFB68B5
S315200007000133FB60FB68132BDFDDC046C046BD46C8
S3152000071004B080BD80B582B000AF78607B681800D9
S31520000720FFF7CCFF7B68DA687B685B68D2187B684A
S31520000730DA607B681A697B689B68D2187B681A61C5
S315200007407B681800FFF7BAFF7B68DB68002B07DCA5
S315200007507B685B685A427B685A607B680122DA6054
S315200007607B68DA687B681B685B68D318802B0BDD97
S315200007707B685B685A427B685A607B681B685B684B
S315200007808022D21A7B68DA607B681B69002B07DC23
S315200007907B689B685A427B689A607B6801221A6153
S315200007A07B681A697B681B689B68D318402B0BDD16
S315200007B07B689B685A427B689A607B681B689B684B
S315200007C04022D21A7B681A617B681800FFF74AFF1D
S315200007D0C046BD4602B080BD80B582B000AF0200E3
S315200007E0FB1D1A70FB1D1B78042B18D89A000E4B84
S315200007F0D3181B689F460D4B00221A700FE00B4B37
S3152000080010221A700BE0094B20221A7007E0074BC2
S3152000081040221A7003E0054B80221A70C046C0465B
S31520000820BD4602B080BDC046600A0020150C0240BD
S3152000083080B582B000AF124AFB1D12781A70FB1DDC
S31520000840FA1D12780F210A401A70FB1D1B78082BFF
S315200008500ED00FDC042B09D00CDC012B02D0022B8E
S3152000086002D007E0012306E0022304E0032302E08E
S31520000870042300E000231800BD4602B080BDC04618
S31520000880110C0240F0B587B000AF3B1D1C4A13CABD
S3152000089013C312681A601723FB1801221A7024E06A
S315200008A01726BB191B781800FFF796FF16257C190B
S315200008B0FFF7BEFF030023702C003B191B78002B8B
S315200008C00DD00020FFF788FFBB191B78013B9A004B
S315200008D03B191B78013BD3183A1DD35C0BE017213B
S315200008E07B181A787B1801321A701723FB181B788D
S315200008F0042BD5D9FF231800BD4607B0F0BDC0464E
S31520000900740A002080B500AF094B18221A603548BA
S315200009108047084B084A1A60084B094A1A60094B57
S3152000092000221A80084B094A1A60C046BD4680BD7F
S31520000930303802400010024055555555000C0240F3
S3152000094055550055040C02400C0C02400000AA55D7
S31520000950B0B584B000AF78603960214BFB60FFF7FB
S31520000960D1FFFFF775FDFFF73FFDFB68DB69FA68EE
S31520000970100098472820FFF788FB0B257C19FFF7E6
S3152000098081FF030023707B191B78082B1FD0ECDC1A
S31520000990062B05D0E9DC022B11D0042B07D01DE055
S315200009A0FB681B6AF86800220221984716E0FB685C
S315200009B01B6A02225142F868002298470EE0FB6823
S315200009C01B6A02225242F8680021984706E0FB681B
S315200009D01B6AF868022200219847C046C5E7C04630
S315200009E01C0A0020090200080C0000000400000078
S315200009F004000000000100020100010101020103C0
S31520000A0002000201020202030301030200000000A9
S31520000A10000000000000000000000000E80900209F
S31520000A2000000000000000000A0000000A0000008C
S31520000A3065060020BD06002015070020450600207B
S31520000A4008050020120500201C0500202605002090
S31520000A50300500203A050020440500204E050020E0
S31520000A60F6070020FE070020060800200E080020BA
S31520000A70160800200102030A0405060B0708090CC4
S30920000A800E000F0D22
S70520000000DA
