S01F00002E2F44656275672F666C6970666C6F705F6972715F61636B2E733139CD
S315200000000248854600F0A2F8FEE7C04600C001205F
S3152000001080B500AF1D4B00221A601D4B1B681C4B80
S3152000002000221A601A4B1A68194B1A490A431A6099
S31520000030194B00221A70194B1A68184B8021890017
S315200000400A431A60164B174A1A60174B1A68164B42
S31520000050120C12041A60144B1A68134B13490A43E4
S315200000601A60134B1A68124B0F210A431A60114B60
S315200000701A68104B0F210A431A600F4B1B680E4B50
S3152000008000221A60C046BD4680BDC0460010024010
S31520000090000C024055555555150C024000E100E074
S315200000A064C00120BD0000200838014044440000FF
S315200000B0003C01400C3C0140083C014080B500AFAB
S315200000C01F4B1B680822134037D01D4B1B6801228B
S315200000D013400BD01A4B1A68194B01210A431A6098
S315200000E0184B1B685A1C174B1A6020E0144B1B68D0
S315200000F00222134009D0124B1A68114B02210A43DF
S315200001001A60104B00221A6011E00D4B1B68042266
S3152000011013400CD00A4B1A68094B04210A431A6073
S31520000120094B1B78DBB2084ADB43DBB21370044B66
S315200001301A68034B08210A431A60C046BD4680BD93
S31520000140143C014068010020150C024080B500AF28
S31520000150FFF75EFF024B1A68024BD2B21A70F9E71C
S3112000016068010020140C02400000000082
S70520000000DA
