S01D00002E2F44656275672F67726170686963646973706C61792E73313990
S315200000000248854600F076FBFEE7C04600C0012088
S3152000001080B500AF0C4B00221A600C4B29221A60C7
S315200000200B4B00221A60084B05221A60C046064B6D
S315200000301A6880235B021340F9D0034B00221A6012
S31520000040C046BD4680BDC04610E000E014E000E09A
S3152000005018E000E080B584B000AF78600023FB6034
S315200000600AE0FFF7D5FFFFF7D3FFFFF7D1FFFFF732
S31520000070CFFFFB680133FB60FB687A689A42F0D8B1
S31520000080C046C046BD4604B080BD80B582B000AF34
S31520000090786007E0FA239B001800FFF7DBFF7B68F8
S315200000A0013B7B607B68002BF4D1C046C046BD4631
S315200000B002B080BD80B500AFFFF7AAFFFFF7A8FF0B
S315200000C0C046BD4680BD80B584B000AF0200FB1D92
S315200000D01A70104A0F203B1812781A703B183A18DB
S315200000E0127804218A431A70FB1D1B785BB2042206
S315200000F093435AB23B181B785BB213435AB23B1850
S315200001001A70044A3B181B781370C046BD4604B0CB
S3152000011080BDC0461410024080B584B000AF0200F6
S31520000120FB1D1A700F4A0F203B1812781A703B18C5
S315200001303A18127804218A431A70FB1D1B785BB289
S31520000140DB435BB23A18127852B213405AB23B18CC
S315200001501A70044A3B181B781370C046BD4604B07B
S3152000016080BDC0461410024080B582B000AF0200A8
S31520000170FB1D1A70FB1D1B78182B1AD01DDC102BAB
S3152000018010D01ADC002B02D0082B04D015E0182042
S31520000190FFF7C2FF11E00820FFF795FF1020FFF7B9
S315200001A0BBFF0AE01020FFF78EFF0820FFF7B4FF01
S315200001B003E01820FFF787FFC046C046BD4602B0C1
S315200001C080BD80B500AF4020FFF77DFF0A20FFF7F6
S315200001D041FF7820FFF7A0FF1E20FFF756FF2020C3
S315200001E0FFF771FF6420FFF750FF18213E2000F033
S315200001F006F918213F2000F002F91821C02000F04E
S31520000200FEF81821402000F0FAF81821B82000F056
S31520000210F6F80020FFF7A8FFC046BD4680BD80B592
S3152000022082B000AF4020FFF777FF144B144A1A60C4
S315200002300120FFF771FF0220FFF745FFFFF73AFF86
S315200002404020FFF740FFFFF735FF0E4B1B78DAB251
S31520000250FB1D7F218A431A704020FFF75DFFFFF7C1
S3152000026029FFFB1D1B78002B00D0E9E7C046034B76
S31520000270054A1A60C046BD4602B080BD0010024045
S3152000028055550000111002405555555580B584B07E
S3152000029000AF0200FB1D1A704020FFF73DFF1C4BEC
S315200002A01C4A1A600320FFF70EFFFB1D1B7818005F
S315200002B0FFF75AFFFFF7FEFE4020FFF704FFFFF788
S315200002C0F9FE154A0F23FB1812781A704020FFF703
S315200002D023FF0F4B114A1A60FB1D1B78082213407F
S315200002E004D00820FFF740FFFFF799FFFB1D1B787E
S315200002F01022134004D01020FFF736FFFFF78FFFA0
S315200003000F23FB181B781800BD4604B080BDC046DD
S315200003100010024055550000111002405555555504
S3152000032080B582B000AF0200FB1D1A70FB1D1B7842
S315200003301800FFF7ABFFFB1D1B781800FFF7A6FF81
S3152000034003001800BD4602B080BD80B582B000AF64
S315200003500200FB1D1A70BB1D0A1C1A70154AFB1DD4
S315200003601B781370BB1D1B781800FFF7FDFEFFF7E7
S31520000370A1FE4020FFF7A7FEFFF79CFE4020FFF7D7
S31520000380CBFEBB1D1B780822134004D00820FFF7A4
S31520000390EBFEFFF744FFBB1D1B781022134004D051
S315200003A01020FFF7E1FEFFF73AFFC046BD4602B038
S315200003B080BDC0461510024080B582B000AF020055
S315200003C0FB1D1A70BB1D0A1C1A704020FFF7A4FEE5
S315200003D0BB1D1B781800FFF7C7FE0120FFF773FE31
S315200003E00220FFF799FEBB1D1A78FB1D1B78110012
S315200003F01800FFF7AAFFC046BD4602B080BD80B5F3
S3152000040082B000AF0200FB1D1A70BB1D0A1C1A70B9
S315200004104020FFF781FEBB1D1B781800FFF7A4FEC6
S315200004200120FFF779FE0220FFF776FEBB1D1A7822
S31520000430FB1D1B7811001800FFF787FFC046BD463D
S3152000044002B080BD80B582B000AFBB1D00221A70FD
S3152000045023E0BB1D1B78482252421343DBB21821EE
S315200004601800FFF7CCFF18214020FFF7C8FFFB1D1F
S3152000047000221A7008E018210020FFF79DFFFB1DBF
S315200004801A78FB1D01321A70FB1D1B783F2BF2D9FF
S31520000490BB1D1A78BB1D01321A70BB1D1B78072B9A
S315200004A0D7D9C046C046BD4602B080BDF0B589B09A
S315200004B000AFF860B9607A60FB68002B00DCB5E01D
S315200004C0BB68002B00DCB1E0FB68802B00DDADE0D3
S315200004D0BB68402B00DDA9E0BB68013B002B00DA9E
S315200004E00733DB10BB61BB68013B524A134004D57E
S315200004F0013B0822524213430133072B2CD89A0082
S315200005004D4BD3181B689F461F23FB1801221A70D8
S3152000051022E01F23FB1802221A701DE01F23FB185E
S3152000052004221A7018E01F23FB1808221A7013E001
S315200005301F23FB1810221A700EE01F23FB182022FF
S315200005401A7009E01F23FB1840221A7004E01F23AB
S31520000550FB1880221A70C0467B68002B05D11F220B
S31520000560BB18BA181278D2431A70FB68402B07DDE5
S315200005701E23FB1810221A70FB68413BFB6006E025
S315200005801E23FB1808221A70FB68013BFB60FB68E0
S315200005905BB2402213435BB2DAB21E257B191B786D
S315200005A019001000FFF72BFFBB695BB248225242AD
S315200005B013435BB2DAB27B191B7819001000FFF7E0
S315200005C01EFF1726BC197B191B781800FFF7A8FEFB
S315200005D003002370FB685BB2402213435BB2DAB29E
S315200005E07B191B7819001000FFF709FF7B68002B89
S315200005F008D01F22BB18B918BA19097812780A43ED
S315200006001A7008E01F22BB18BA1817217918127819
S3152000061009780A401A701E23FB181A781F23FB1824
S315200006201B7811001800FFF7C7FE00E0C046BD4644
S3152000063009B0F0BD070000801407002080B582B005
S3152000064000AF00237B6008E07B6801220A211800A6
S31520000650FFF72CFF7B6801337B607B687F2BF3D908
S3152000066000237B6008E07B68012219000A20FFF73F
S315200006701DFF7B6801337B607B683F2BF3D9FA2310
S315200006805B001800FFF701FD00237B6008E07B6814
S3152000069000220A211800FFF709FF7B6801337B60DF
S315200006A07B687F2BF3D900237B6008E07B680022E0
S315200006B019000A20FFF7FAFE7B6801337B607B680E
S315200006C03F2BF3D9C046C046BD4602B080BD80B59B
S315200006D000AF054B18221A600D488047034B044A89
S315200006E01A60C046BD4680BD303802400010024028
S315200006F05555555580B500AFFFF7E9FFFFF761FD6A
S31520000700FFF7A0FEFFF79AFFC046BD4680BD00005A
S315200007100902000808050020120500201C050020FB
S3152000072026050020300500203A050020440500203B
S309200007304E0500202C
S70520000000DA
